:100000000C944C000C946C000C946C000C946C00E0
:100010000C946C000C94CF030C946C000C946C004A
:100020000C946C000C946C000C946C000C946C00A0
:100030000C946C000C946C000C946C000C946C0090
:100040000C946C000C946C000C946C000C946C0080
:100050000C946C000C946C000C946C000C946C0070
:100060000C946C000C940D020C94AD010C940302E2
:100070000C946C000C946C000C946C000C946C0050
:100080000C946C000C946C000C946C000C946C0040
:100090000C946C000C946C0011241FBECFEFD0E2C6
:1000A000DEBFCDBF11E0A0E0B1E0E0E6FEE000E0A1
:1000B0000BBF02C007900D92A43BB107D9F71BBE3E
:1000C00012E0A4EBB1E001C01D92AE32B107E1F73E
:1000D0000E946E000C942F070C940000C3EED0E237
:1000E000DEBFCDBF10E8109361001092610081E087
:1000F00090E00E94840141E06CEA7CED89E60E9478
:10010000350310922D028BB181278BB9579A7894C1
:1001100081E08093100280E091E09F938F930E9492
:10012000C60200E010E089E18A8382E38B838BE4DE
:100130008C830F900F908091100299278230910547
:1001400009F485C08330910524F48130910521F0B4
:1001500098C0039751F195C09F938F9389E191E0E7
:100160009F938F930E94C6020F900F900F900F9055
:1001700080912D028823E1F380911102813091F466
:1001800082E192E09F938F938BE291E09F938F9314
:100190000E94C60283E0809310020E94860300E062
:1001A00010E02FC081E391E074C080912D0288237C
:1001B000C1F18091110299278330910549F0843073
:1001C00091051CF4019799F021C0049781F01EC09D
:1001D0008091120299279F938F9385E491E09F93DA
:1001E0008F930E94C60282E0809310020AC082E1CF
:1001F00092E09F938F938BE291E09F938F930E9465
:10020000C6020F900F900F900F9008C08BE591E001
:100210009F938F930E94C6020F900F9010922D0211
:1002200033C00832110581F482E08093100200E0AF
:1002300010E00E941C0387E791E09F938F930E9438
:10024000C6020F900F9020C00F5F1F4F1DC082E0AD
:1002500089838A818F5F8A838B818F5F8B838C8177
:100260008F5F8C83BE016F5F7F4F8CED9CEA0E9495
:100270009F030E94860300E010E083E08093100259
:1002800003C080E991E005C080E593EC0197F1F7A8
:1002900052CF9F938F930E94C6020F900F9080E0E1
:1002A00090E00C942F078091BE019091BF010895BA
:1002B0002091BC013091BD018091BE019091BF01A0
:1002C000820F931F08958091BC019091BD01089504
:1002D0008091B6019091B701029798F48091B40192
:1002E0009091B501892B51F01092B5011092B40193
:1002F0008091A401992787FD909508958FEF9FEF36
:1003000008958FEF9FEF089520E8209361001092E9
:1003100061001092C80023E32093CC0028EF2093C3
:10032000C90026E02093CA009093B7018093B601DC
:100330000895282F8091B6019091B701009731F46C
:100340008091C9008F778093C90002C0019711F492
:100350002093CE0080E090E008951F920F920FB698
:100360000F9211242F933F934F935F936F937F933B
:100370008F939F93AF93BF93EF93FF938091B601B9
:100380009091B701009731F48091C9008068809303
:10039000C90028C0019731F5E091B801F091B90189
:1003A0008091BA019091BB01E817F907D9F0E817DD
:1003B000F9071CF0E035F10524F4E054FE4F80818C
:1003C00006C01092B9011092B8018091C0010E943C
:1003D00099018091B8019091B90101969093B9016A
:1003E0008093B801FF91EF91BF91AF919F918F9151
:1003F0007F916F915F914F913F912F910F900FBE21
:100400000F901F9018951F920F920FB60F92112404
:100410000F900FBE0F901F9018951F920F920FB65E
:100420000F9211242F933F934F935F936F937F937A
:100430008F939F93AF93BF93EF93FF938091B601F8
:100440009091B701009769F481E090E09093B50135
:100450008093B4018091CE008093A4010E94990101
:100460000BC08130910541F49093B5018093B401A4
:100470008091CE008093A401FF91EF91BF91AF9145
:100480009F918F917F916F915F914F913F912F91AC
:100490000F900FBE0F901F9018952091BA013091C8
:1004A000BB018091B8019091B901281739073CF040
:1004B000281B390B80E590E0821B930B0895821B6B
:1004C000930B0895EF92FF920F931F93CF93DF93B7
:1004D0008C018091C9008F7D8093C9008091B60105
:1004E0009091B701019709F045C0EE24FF24E8017F
:1004F00009900020E9F72197C01BD10B0E944D0203
:100500000597C817D9076CF58091BE019091BF017E
:1005100001969093BF018093BE01EC16FD0654F541
:10052000D8018091BA019091BB018035910521F4E9
:100530001092BB011092BA018091BA019091BB0157
:10054000FC01E054FE4F2D91208301969093BB0156
:100550008093BA010894E11CF11CEC16FD060CF323
:1005600009C08091BC019091BD0101969093BD019D
:100570008093BC018091C90080628093C900DF91A3
:10058000CF911F910F91FF90EF900895CF93DF933C
:10059000CDB7DEB7C055D0400FB6F894DEBF0FBE62
:1005A000CDBFE5E5F0E0EC0FFD1F81919191AF012A
:1005B000BC01CE0101960E941C04CE0101960E944E
:1005C0006202C05BDF4F0FB6F894DEBF0FBECDBF37
:1005D000DF91CF91089568E270E00E94E40640E068
:1005E00050E04617570760F420E931E088EC90E0CE
:1005F0000197F1F721503040C9F74F5F5F4FF1CFBE
:10060000089527E030E0482F5527CA01022E02C086
:10061000959587950A94E2F780FF02C0109A01C071
:100620001098119A0000000000000000119821505D
:10063000304037FFEACF0895EC981298139811983C
:10064000109808951398089A109811980000129A1B
:100650008DE08A95F1F7089512980000109811988E
:10066000139A8DE08A95F1F70895EF92FF921F9308
:10067000CF93C42F45EAE42E41E0F42E1FE09BB156
:1006800020E892279BB9579A272F33272093AF0151
:100690006093B0019927880F991F8C2B8093B30129
:1006A000CC2329F080916A00836080936A00099AC4
:1006B0000B9A0A9A089A80E797E10197F1F70E944E
:1006C0002203F70181917F010E9401031150C9F7B4
:1006D0000E941C03CC2311F0089801C0089A0E94C4
:1006E0002C03C111EC9A80E090E0CF911F91FF9014
:1006F000EF9008950E94220382ED0E9401030E9460
:100700001C03089AEC980E942C0308950E9422036F
:1007100083ED0E9401030E941C030898EC9A0E943A
:100720002C0389EF90E000000000000000000000B2
:10073000000000000000019797FFF5CF0895EF92A9
:10074000FF920F931F93CF93DF938C017B010E9445
:100750007A03139A80ED97E00197F1F7812F99279B
:100760000E940103802F0E9401030E942C03E701D5
:100770008701045E1F4F89910E940103C017D107B2
:10078000D4F3139880E797E10197F1F70E941C03D7
:10079000DF91CF911F910F91FF90EF9008951F92DD
:1007A0000F920FB60F9211242F933F934F935F93A5
:1007B0006F937F938F939F93AF93BF93EF93FF9329
:1007C0008BB190E889278BB9A1E0B0E041E152E01C
:1007D000FA0160E027E030E0119A009B08C0CD01EB
:1007E000022E02C0880F991F0A94E2F7682B119815
:1007F0002150304037FFF0CF862F992781934F5FEC
:100800005F4F82E04C32580721F318F381E0809368
:100810002D020E941C03FF91EF91BF91AF919F9118
:100820008F917F916F915F914F913F912F910F9099
:100830000FBE0F901F901895AEE0B0E0E2E2F4E03A
:100840000C9406078C0186E08C831A8309838FEF52
:100850009FE79E838D83CE0101960E943804EF812D
:10086000F885E00FF11F1082E4E02E960C94220729
:10087000ABE0B0E0EEE3F4E00C94FB063C014B018E
:100880005A01FC0117821682838181FD03C08FEF1C
:100890009FEFF5C1F3012381F40123FD059123FFAF
:1008A00001914F01002309F4E7C1053239F423FD1A
:1008B000059123FF01914F01053231F4B301802FDF
:1008C00099270E945906E6CFCC24DC2C5C2C3AE018
:1008D000FFE1FD1518F1802F99278B32910591F0DA
:1008E0008C32910534F48032910579F0839799F038
:1008F00015C08D32910561F0C09781F461E0E62E5C
:10090000DE2831C052E0F52EDF2804E0D02A2BC0CB
:1009100018E0D12A28C040E1D42A25C0D7FC2CC039
:10092000802F80538A3088F4082FD6FE06C0539E4D
:10093000C0011124502E580E16C0C39EC0011124B0
:10094000C02EC80E50E2D52A0EC00E3229F4D6FCB5
:1009500093C180E4D82A07C00C3619F490E8D92A4C
:1009600002C0083649F4F40123FD059123FF0191EB
:100970004F01002309F0ACCF802F8554833018F04D
:100980008052833038F444E0E42EF12CAE0CBF1CCE
:100990008FE316C0802F99278336910559F084364E
:1009A000910524F48335910541F15CC083379105AD
:1009B00079F058C0F50102E010E0A00EB11E808170
:1009C00089837E010894E11CF11C01E010E012C053
:1009D000F50122E030E0A20EB31EE080F180D6FEE9
:1009E00003C0652D772702C06FEF7FEFC7010E941C
:1009F0004E068C013FE7D32214C0F50142E050E0DF
:100A0000A40EB51EE080F180D6FE03C0652D7727C9
:100A100002C06FEF7FEFC7010E9443068C0150E8D0
:100A2000D52AD3FC0CC08C2D99270817190738F448
:100A3000B30180E290E00E945906CA94F4CF0115F8
:100A4000110509F40FC1F701D7FC8591D7FE8191FB
:100A50007F01B30199270E945906C110CA94015021
:100A60001040EDCF043611F00936A9F5D7FE0BC0C2
:100A7000F50134E0E32EF12CAE0CBF1C60817181D6
:100A8000828193810EC0F50102E010E0A00EB11E3C
:100A9000808191819C01442737FD4095542FCA01E4
:100AA000B9013FE6D32297FF09C0909580957095D4
:100AB00061957F4F8F4F9F4F40E8D42A2AE030E066
:100AC000AE014F5F5F4F0E9486069E012F5F3F4F32
:100AD000082F021B53C0053729F45FEED5222AE008
:100AE00030E027C0E9EFDE228F36910571F08037C4
:100AF000910524F488359105A9F0BEC08037910591
:100B000039F08837910531F0B7C028E030E011C0E6
:100B1000F0E1DF2AD4FE03C024E0E22EDE2820E14B
:100B200030E007C0D4FE03C096E0F92EDF2820E1B4
:100B300032E0D7FE0AC0F50104E010E0A00EB11EBD
:100B400060817181828193810CC0F50142E050E0A7
:100B5000A40EB51E808191817C0100271127C80158
:100B6000B701AE014F5F5F4F0E9486069E012F5F67
:100B70003F4F082F021B8FE7F82EDF20102FD6FEE5
:100B80000DC02EEFD222051548F4152D8D2D992775
:100B900084FF04C082FD02C03FEED3222D2D3327F7
:100BA00024FF0DC0FE01E00FF11D8081803319F498
:100BB00049EED42208C01F5F22FF05C003C08D2D5F
:100BC000867809F01F5FED2CFF24E3FC12C0E0FEE5
:100BD00007C0502E1C1520F45C2C511A500E1C2DF1
:100BE0001C1538F4B30180E290E00E9459061F5FA3
:100BF000F7CF1C1518F48C2D811B01C080E0C82E86
:100C0000E4FE10C0B30180E390E00E945906E2FECA
:100C100015C0E1FE03C088E590E002C088E790E0DF
:100C2000B3010AC08D2D867849F080E2E1FC8BE2A9
:100C3000D7FC8DE2B30199270E945906051538F4B7
:100C4000B30180E390E00E9459065A94F7CF015017
:100C5000FE01E00FF11D8181B30199270E94590621
:100C60000023A9F7CC2009F415CEB30180E290E06F
:100C70000E945906CA94F6CFF30186819781EFE06E
:100C80002B960C941707FC010590615070400110E1
:100C9000D8F7809590958E0F9F1F0895FC016150A5
:100CA000704001900110D8F7809590958E0F9F1F8E
:100CB00008950F931F93CF93DF938C01EB018B81EA
:100CC000992781FF1CC082FF0DC02E813F818C813E
:100CD0009D812817390764F4E881F9810193F9832C
:100CE000E88306C0E885F985802F0995892B39F4BA
:100CF0008E819F8101969F838E83C80102C08FEFF2
:100D00009FEFDF91CF911F910F910895FA01AA27CC
:100D1000283051F1203181F1E8946F936E7F6E5F3E
:100D20007F4F8F4F9F4FAF4FB1E03ED0B4E03CD0EC
:100D3000670F781F891F9A1FA11D680F791F8A1FCF
:100D4000911DA11D6A0F711D811D911DA11D20D036
:100D500009F468943F912AE0269F11243019305DF0
:100D60003193DEF6CF010895462F4770405D4193E1
:100D7000B3E00FD0C9F7F6CF462F4F70405D4A332E
:100D800018F0495D31FD4052419302D0A9F7EACFF6
:100D9000B4E0A6959795879577956795BA95C9F725
:100DA00000976105710508959B01AC010A2E069418
:100DB0005795479537952795BA95C9F7620F731FD1
:100DC000841F951FA01D0895AA1BBB1B51E107C0DE
:100DD000AA1FBB1FA617B70710F0A61BB70B881FCB
:100DE000991F5A95A9F780959095BC01CD0108955A
:100DF0002F923F924F925F926F927F928F929F922B
:100E0000AF92BF92CF92DF92EF92FF920F931F9318
:100E1000CF93DF93CDB7DEB7CA1BDB0B0FB6F894C9
:100E2000DEBF0FBECDBF09942A88398848885F8409
:100E30006E847D848C849B84AA84B984C884DF807A
:100E4000EE80FD800C811B81AA81B981CE0FD11D5E
:100E50000FB6F894DEBF0FBECDBFED010895FFCFF2
:100E6000426173652053746174696F6E20436F6EC5
:100E70006E65637465640D0A00496E69742063537E
:100E8000746174653A2025750D0A000925730D0AF1
:100E90000009426C696D70206E6F74207265616428
:100EA00079210D0A000943757272656E74204865D8
:100EB000696768743A2025750D0A0009556E6B6ED6
:100EC0006F776E207061636B65742072656365690E
:100ED0007665642E0D0A0054696D65206F75742067
:100EE000686173206F636375727265642E0D0A000A
:100EF000095374617465206E6F74206B6E6F776E2A
:100F00002E0D0A00FF00E00000000000000000AC11
:040F1000DC436F014E
:00000001FF
