:100000000C944C000C946C000C946C000C946C00E0
:100010000C946C000C94B2010C946C000C946C0069
:100020000C946C000C946C000C946C000C946C00A0
:100030000C946C000C946C000C946C000C946C0090
:100040000C946C000C946C000C946C000C946C0080
:100050000C946C000C946C000C946C000C946C0070
:100060000C946C000C94CF020C946F020C94C5029B
:100070000C946C000C946C000C946C000C946C0050
:100080000C946C000C946C000C946C000C946C0040
:100090000C946C000C946C0011241FBECFEFD0E2C6
:1000A000DEBFCDBF11E0A0E0B1E0E2E8FDE000E09E
:1000B0000BBF02C007900D92A833B107D9F71BBE42
:1000C00011E0A8E3B1E001C01D92A13BB107E1F747
:1000D0000E9479000C94C0060C94000080E8809384
:1000E00061001092610081E090E00E9446027894E5
:1000F0000895C3EED0E2DEBFCDBF0E946E0041E0A6
:100100006CED7CEA89E60E9418011092B0015F98BC
:1001100081E0898382E0E82EF12CEC0EFD1ED701F0
:10012000E0E0F1E080E101900D928150E1F702E022
:1001300010E0BE016F5F7F4F8CEA9CED0E94820150
:1001400080E593ECFC013197F1F7FC013197F1F771
:10015000FC013197F1F7FC013197F1F701501040A4
:1001600017FFE7CF0E9469018091B0018823E1F376
:1001700080E191E09F938F930E9488030F900F90EE
:1001800080919401823061F4809195018B838091FC
:1001900096018A83809197018C8383E089830AC0CA
:1001A00081E08983F701A0E0B1E080E10D90019248
:1001B0008150E1F7BE016F5F7F4F8CEA9CED0E949A
:1001C00082011092B001CECF27E030E0482F5527B2
:1001D000CA01022E02C0959587950A94E2F780FF26
:1001E00002C0109A01C01098119A0000000000008F
:1001F000000011982150304037FFEACF0895EC9865
:10020000129813981198109808951398089A1098B6
:1002100011980000129A8DE08A95F1F708951298CE
:10022000000010981198139A8DE08A95F1F70895BF
:10023000EF92FF921F93CF93C42F47E2E42E41E049
:10024000F42E1FE09BB120E892279BB9579A272FE5
:10025000332720933101609332019927880F991F2A
:100260008C2B80933501CC2329F080916A00836028
:1002700080936A00099A0B9A0A9A089A80E797E194
:100280000197F1F70E940501F70181917F010E941A
:10029000E4001150C9F70E94FF00CC2311F0089828
:1002A00001C0089A0E940F01C111EC9A80E090E011
:1002B000CF911F91FF90EF9008950E94050182ED6C
:1002C0000E94E4000E94FF00089AEC980E940F012F
:1002D00008950E94050183ED0E94E4000E94FF0042
:1002E0000898EC9A0E940F0189EF90E0000000004E
:1002F000000000000000000000000000019797FFD0
:10030000F5CF0895EF92FF920F931F93CF93DF9352
:100310008C017B010E945D01139A80ED97E00197AB
:10032000F1F7812F99270E94E400802F0E94E400BA
:100330000E940F01E7018701045E1F4F89910E940F
:10034000E400C017D107D4F3139880E797E1019731
:10035000F1F70E94FF00DF91CF911F910F91FF9065
:10036000EF9008951F920F920FB60F9211242F93C2
:100370003F934F935F936F937F938F939F93AF932D
:10038000BF93EF93FF938BB190E889278BB9A1E0DE
:10039000B0E044E951E0FA0160E027E030E0119A72
:1003A000009B08C0CD01022E02C0880F991F0A943D
:1003B000E2F7682B11982150304037FFF0CF862F9D
:1003C000992781934F5F5F4F81E04F3A580721F3A0
:1003D00018F381E08093B0010E94FF00FF91EF913C
:1003E000BF91AF919F918F917F916F915F914F914D
:1003F0003F912F910F900FBE0F901F90189568E2BC
:1004000070E00E94750640E050E04617570760F420
:1004100020E931E088EC90E00197F1F7215030407D
:10042000C9F74F5F5F4FF1CF0895809142019091DE
:100430004301089520914001309141018091420192
:1004400090914301820F931F0895809140019091F4
:100450004101089580913A0190913B01029798F4EF
:100460008091380190913901892B51F01092390116
:100470001092380180913601992787FD9095089553
:100480008FEF9FEF08958FEF9FEF089520E820935F
:100490006100109261001092C80023E32093CC0009
:1004A00028EF2093C90026E02093CA0090933B01D7
:1004B00080933A010895282F80913A0190913B0151
:1004C000009731F48091C9008F778093C90002C0F2
:1004D000019711F42093CE0080E090E008951F92E0
:1004E0000F920FB60F9211242F933F934F935F9368
:1004F0006F937F938F939F93AF93BF93EF93FF93EC
:1005000080913A0190913B01009731F48091C900AC
:1005100080688093C90028C0019731F5E0913C01C3
:10052000F0913D0180913E0190913F01E817F9075C
:10053000D9F0E817F9071CF0E035F10524F4EC5B7D
:10054000FE4F808106C010923D0110923C018091C7
:1005500044010E945B0280913C0190913D01019613
:1005600090933D0180933C01FF91EF91BF91AF913A
:100570009F918F917F916F915F914F913F912F91BB
:100580000F900FBE0F901F9018951F920F920FB6ED
:100590000F9211240F900FBE0F901F9018951F926D
:1005A0000F920FB60F9211242F933F934F935F93A7
:1005B0006F937F938F939F93AF93BF93EF93FF932B
:1005C00080913A0190913B01009769F481E090E0BD
:1005D00090933901809338018091CE008093360149
:1005E0000E945B020BC08130910541F49093390168
:1005F000809338018091CE0080933601FF91EF9176
:10060000BF91AF919F918F917F916F915F914F912A
:100610003F912F910F900FBE0F901F901895209132
:100620003E0130913F0180913C0190913D0128179E
:1006300039073CF0281B390B80E590E0821B930BB7
:100640000895821B930B0895EF92FF920F931F93CF
:10065000CF93DF938C018091C9008F7D8093C90077
:1006600080913A0190913B01019709F045C0EE2439
:10067000FF24E80109900020E9F72197C01BD10B66
:100680000E940F030597C817D9076CF580914201A6
:100690009091430101969093430180934201EC169F
:1006A000FD0654F5D80180913E0190913F018035BF
:1006B000910521F410923F0110923E0180913E017C
:1006C00090913F01FC01EC5BFE4F2D912083019640
:1006D00090933F0180933E010894E11CF11CEC16BD
:1006E000FD060CF309C080914001909141010196F3
:1006F00090934101809340018091C9008062809372
:10070000C900DF91CF911F910F91FF90EF90089555
:10071000CF93DF93CDB7DEB7C055D0400FB6F89476
:10072000DEBF0FBECDBFE5E5F0E0EC0FFD1F819110
:100730009191AF01BC01CE0101960E94AD03CE01A3
:1007400001960E942403C05BDF4F0FB6F894DEBF12
:100750000FBECDBFDF91CF910895AEE0B0E0E3EBE7
:10076000F3E00C9497068C0186E08C831A8309834E
:100770008FEF9FE79E838D83CE0101960E94C90370
:10078000EF81F885E00FF11F1082E4E02E960C94C3
:10079000B306ABE0B0E0EFECF3E00C948C063C0168
:1007A0004B015A01FC0117821682838181FD03C02F
:1007B0008FEF9FEFF5C1F3012381F40123FD059134
:1007C00023FF01914F01002309F4E7C1053239F4F9
:1007D00023FD059123FF01914F01053231F4B3014F
:1007E000802F99270E94EA05E6CFCC24DC2C5C2CD4
:1007F0003AE0FFE1FD1518F1802F99278B32910522
:1008000091F08C32910534F48032910579F0839720
:1008100099F015C08D32910561F0C09781F461E0C7
:10082000E62EDE2831C052E0F52EDF2804E0D02A83
:100830002BC018E0D12A28C040E1D42A25C0D7FC1B
:100840002CC0802F80538A3088F4082FD6FE06C033
:10085000539EC0011124502E580E16C0C39EC001D5
:100860001124C02EC80E50E2D52A0EC00E3229F433
:10087000D6FC93C180E4D82A07C00C3619F490E85E
:10088000D92A02C0083649F4F40123FD059123FF5B
:1008900001914F01002309F0ACCF802F85548330A4
:1008A00018F08052833038F444E0E42EF12CAE0C82
:1008B000BF1C8FE316C0802F99278336910559F00E
:1008C0008436910524F48335910541F15CC083376A
:1008D000910579F058C0F50102E010E0A00EB11EBC
:1008E000808189837E010894E11CF11C01E010E005
:1008F00012C0F50122E030E0A20EB31EE080F180CC
:10090000D6FE03C0652D772702C06FEF7FEFC701CA
:100910000E94DF058C013FE7D32214C0F50142E0BD
:1009200050E0A40EB51EE080F180D6FE03C0652D18
:10093000772702C06FEF7FEFC7010E94D4058C01BB
:1009400050E8D52AD3FC0CC08C2D9927081719071D
:1009500038F4B30180E290E00E94EA05CA94F4CF33
:100960000115110509F40FC1F701D7FC8591D7FED8
:1009700081917F01B30199270E94EA05C110CA94B1
:1009800001501040EDCF043611F00936A9F5D7FE1D
:100990000BC0F50134E0E32EF12CAE0CBF1C6081DE
:1009A0007181828193810EC0F50102E010E0A00EFA
:1009B000B11E808191819C01442737FD4095542FC1
:1009C000CA01B9013FE6D32297FF09C090958095EF
:1009D000709561957F4F8F4F9F4F40E8D42A2AE052
:1009E00030E0AE014F5F5F4F0E9417069E012F5F00
:1009F0003F4F082F021B53C0053729F45FEED52265
:100A00002AE030E027C0E9EFDE228F36910571F051
:100A10008037910524F488359105A9F0BEC0803750
:100A2000910539F08837910531F0B7C028E030E002
:100A300011C0F0E1DF2AD4FE03C024E0E22EDE285C
:100A400020E130E007C0D4FE03C096E0F92EDF2895
:100A500020E132E0D7FE0AC0F50104E010E0A00E6C
:100A6000B11E60817181828193810CC0F50142E0E9
:100A700050E0A40EB51E808191817C0100271127D2
:100A8000C801B701AE014F5F5F4F0E9417069E017C
:100A90002F5F3F4F082F021B8FE7F82EDF20102F0C
:100AA000D6FE0DC02EEFD222051548F4152D8D2D42
:100AB000992784FF04C082FD02C03FEED3222D2D72
:100AC000332724FF0DC0FE01E00FF11D808180332C
:100AD00019F449EED42208C01F5F22FF05C003C0ED
:100AE0008D2D867809F01F5FED2CFF24E3FC12C0EA
:100AF000E0FE07C0502E1C1520F45C2C511A500E3D
:100B00001C2D1C1538F4B30180E290E00E94EA0528
:100B10001F5FF7CF1C1518F48C2D811B01C080E0DE
:100B2000C82EE4FE10C0B30180E390E00E94EA0505
:100B3000E2FE15C0E1FE03C088E590E002C088E750
:100B400090E0B3010AC08D2D867849F080E2E1FC87
:100B50008BE2D7FC8DE2B30199270E94EA050515C7
:100B600038F4B30180E390E00E94EA055A94F7CF8D
:100B70000150FE01E00FF11D8181B30199270E9410
:100B8000EA050023A9F7CC2009F415CEB30180E2D1
:100B900090E00E94EA05CA94F6CFF301868197811E
:100BA000EFE02B960C94A806FC0105906150704074
:100BB0000110D8F7809590958E0F9F1F0895FC0126
:100BC0006150704001900110D8F7809590958E0F7C
:100BD0009F1F08950F931F93CF93DF938C01EB0119
:100BE0008B81992781FF1CC082FF0DC02E813F8120
:100BF0008C819D812817390764F4E881F98101937C
:100C0000F983E88306C0E885F985802F0995892B4B
:100C100039F48E819F8101969F838E83C80102C023
:100C20008FEF9FEFDF91CF911F910F910895FA0100
:100C3000AA27283051F1203181F1E8946F936E7F1B
:100C40006E5F7F4F8F4F9F4FAF4FB1E03ED0B4E00C
:100C50003CD0670F781F891F9A1FA11D680F791F4D
:100C60008A1F911DA11D6A0F711D811D911DA11D5E
:100C700020D009F468943F912AE0269F112430196E
:100C8000305D3193DEF6CF010895462F4770405D09
:100C90004193B3E00FD0C9F7F6CF462F4F70405DB8
:100CA0004A3318F0495D31FD4052419302D0A9F713
:100CB000EACFB4E0A6959795879577956795BA950D
:100CC000C9F700976105710508959B01AC010A2ED3
:100CD00006945795479537952795BA95C9F7620FAA
:100CE000731F841F951FA01D0895AA1BBB1B51E1F4
:100CF00007C0AA1FBB1FA617B70710F0A61BB70B8C
:100D0000881F991F5A95A9F780959095BC01CD0130
:100D100008952F923F924F925F926F927F928F929F
:100D20009F92AF92BF92CF92DF92EF92FF920F937A
:100D30001F93CF93DF93CDB7DEB7CA1BDB0B0FB684
:100D4000F894DEBF0FBECDBF09942A883988488841
:100D50005F846E847D848C849B84AA84B984C884D7
:100D6000DF80EE80FD800C811B81AA81B981CE0FCE
:100D7000D11D0FB6F894DEBF0FBECDBFED010895B3
:020D8000FFCFA3
:100D8200426C696D7020436F6E6E656374656400BA
:100D9200696E20626C696D703A20676F74207061B1
:100DA200636B65740D0A0000E000000000000000A3
:080DB20000ACDC436F01FF00FF
:00000001FF
