:100000000C944C000C946B000C946B000C946B00E3
:100010000C946B000C946B000C946B000C946B00B4
:100020000C946B000C946B000C946B000C946B00A4
:100030000C946B000C946B000C946B000C946B0094
:100040000C946B000C946B000C946B000C946B0084
:100050000C946B000C946B000C946B000C946B0074
:100060000C946B000C946B000C946B000C946B0064
:100070000C946B000C946B000C946B000C946B0054
:100080000C946B000C946B000C946B000C946B0044
:100090000C946B000C946B0011241FBECFEFD0E2C8
:1000A000DEBFCDBF11E0A0E0B1E0E8E2F1E000E0AA
:1000B0000BBF02C007900D92A030B107D9F711E035
:1000C000A0E0B1E001C01D92A030B107E1F70E94AD
:1000D0006D000C9493000C940000F89480E88093D9
:1000E0006100109261000E94890078940E947C0057
:1000F00086E90E948000FCCF5F9A089517BC08959E
:1001000087BD0895895A9E4111F041980895419AFA
:1001100008958AB1826B8AB9399A279A83E884BD97
:0801200081E085BD0895FFCFC9
:00000001FF
