:100000000C944C000C946B000C946B000C946B00E3
:100010000C946B000C940C010C941A010C946B0062
:100020000C946B000C9428010C946B000C946B00E6
:100030000C946B000C946B000C946B000C946B0094
:100040000C946B000C946B000C946B000C946B0084
:100050000C946B000C946B000C946B000C946B0074
:100060000C946B000C946B000C9423020C946B00AA
:100070000C946B000C946B000C946B000C946B0054
:100080000C946B000C946B000C946B000C946B0044
:100090000C946B000C946B0011241FBECFEFD0E2C8
:1000A000DEBFCDBF11E0A0E0B1E0EAE8FBE000E098
:1000B0000BBF02C007900D92A232B107D9F712E030
:1000C000A2E2B1E001C01D92AF32B107E1F70E9498
:1000D0003B010C94C4050C940000FB0180937C0050
:1000E00080EC80937A0080917A0086FDFCCF80ECD2
:1000F00080937A0080917A0086FDFCCF80EC80931B
:100100007A0080917A0086FDFCCF80917900EE0F15
:10011000FF1FED5DFE4F99279183808308951F9304
:10012000CF93DF9389EE80937E0080B3897E80BB7E
:1001300081B3897E81BB10912201C0E0D0E060E0F4
:1001400070E081E60E946D0061E070E082E60E944E
:100150006D0062E070E084E60E946D001F5F1B305E
:1001600008F010E02196CB30D10549F71093220119
:10017000DF91CF911F910895CF92DF92EF92FF927E
:100180000F931F938C017B016A0160E070E081E6B0
:100190000E946D0080912301F801808361E070E08E
:1001A00082E60E946D0080912501F701808362E064
:1001B00070E084E60E946D0080912701F601808343
:1001C000809122018F5F809322018B3010F010927A
:1001D00022011F910F91FF90EF90DF90CF90089533
:1001E000EAE6F0E080818D7F80838081816080837A
:1001F000EC9A8081877F8083808184608083ED9A00
:1002000081E080936800EBE6F0E080818068808385
:1002100080818064808308951F920F920FB60F92A1
:1002200011248F9380EA8BB98F910F900FBE0F909E
:100230001F9018951F920F920FB60F9211248F9353
:1002400080E28BB98F910F900FBE0F901F90189581
:100250001F920F920FB60F9211248F932E9B03C003
:1002600080E58BB902C080E88BB98F910F900FBEEB
:100270000F901F9018954F925F926F927F928F927E
:100280009F92AF92BF92CF92DF92EF92FF920F9325
:100290001F93CF93DF93CDB7DEB7E5970FB6F894F2
:1002A000DEBF0FBECDBF1B8219821A82F89480E890
:1002B00080936100109261000E94AE010E948F0045
:1002C00078948FEF8AB98BB932E0432E512C4C0EC3
:1002D0005D1E23E0622E712C6C0E7D1E4E01089473
:1002E000811C911C96E0A92E91E0B92E84E0C82EC5
:1002F000D12CCC0EDD1EEE24FF24A201B401C301DB
:100300000E94BC008A8199279F938F9389819927A6
:100310009F938F938B8199279F938F93BF92AF92D7
:10032000DF92CF920E9459028C0164E070E08CE170
:1003300091E00E94C901C7010197F1F7B801C60118
:100340000E94C901C7010197F1F78DB79EB70A96C0
:100350000FB6F8949EBF0FBE8DBFCFCF82E08093C3
:10036000C80088E08093C90086E08093CA0010929C
:10037000CD0089E18093CC0010922A0110922901CE
:1003800010922C0110922B0110922E0110922D012F
:100390000895DF92EF92FF920F931F93CF93DF9315
:1003A000EB01DFB6F894161617060CF040C060910A
:1003B0002D0170912E0120912B0130912C01009183
:1003C000290110912A01EE24FF2440E050E0DC01D5
:1003D0000DC08D91F901E15DFE4F80832F5F3F4F8E
:1003E00030704F5F5F4FC417D50751F0611571052D
:1003F00081F30217130769F78FEFE82EF82EE9CF84
:1004000030932C0120932B01E114F10421F030935F
:100410002A01209329018091C90080628093C9003C
:1004200081E090E090932E0180932D0102C0EE2494
:10043000FF24DFBEC701DF91CF911F910F91FF9085
:10044000EF90DF9008951F920F920FB60F92112434
:100450002F933F938F939F93EF93FF938091290165
:1004600090912A01FC01E15DFE4F20812093CE0096
:100470000196907090932A018093290120912B017D
:1004800030912C018217930749F410922E0110929B
:100490002D018091C9008F7D8093C900FF91EF915C
:1004A0009F918F913F912F910F900FBE0F901F90B2
:1004B00018950F931F93CF93DF93CDB7DEB7609757
:1004C0000FB6F894DEBF0FBECDBF0F89188D86E042
:1004D0008E831C830B838FEF9FE798878F83AE01FA
:1004E000455E5F4F5A834983698D7A8DCE010396AD
:1004F0000E948B0229853A85020F131FF801108292
:1005000060960FB6F894DEBF0FBECDBFDF91CF91DE
:100510001F910F9108952F923F924F925F926F9289
:100520007F928F929F92AF92BF92CF92DF92EF9283
:10053000FF920F931F93CF93DF93CDB7DEB76497EE
:100540000FB6F894DEBF0FBECDBFCC24DD247601FC
:100550001C017C8B6B8B2A01FC0117821682838124
:1005600081FD03C08FEF9FEF88C2AA24BB2472C213
:10057000A0FE57C28A8980538A30E8F4FA89F033A2
:1005800041F42D85222329F4A3FC03C080E091E0EF
:100590006FC08AE0ED85E802C0011124FA89F80FE6
:1005A000F053FD87F7FF02C02FE72D87A3FC4CC255
:1005B0003D853E8749C2C50188709070A3FE05C085
:1005C000ED85EE2311F4F1E0FD872A89283624F524
:1005D00025360CF05BC0233509F480C024358CF43B
:1005E0002B32C1F12C3234F42032C1F1233209F024
:1005F0000DC23CC03A893D32B1F13E3209F006C22B
:100600003AC08A89833609F449C084360CF081C027
:10061000883509F0FBC11BC0EA89E03709F4A3C0A3
:10062000E13744F4EC3669F1EF3671F0E93609F060
:10063000EDC16FC0FA89F53709F49DC0F83739F07C
:10064000F33709F0E3C134C028E0298B94C030E1CE
:10065000398B91C080E190E0A82AB92AE0E2F0E06D
:10066000AE2ABF2AF1C120E830E00DC080E490E05E
:10067000A82AB92AE9C1E8E0F0E0AE2ABF2A1D861F
:10068000E3C124E030E0A22AB32ADEC14FE3C42E46
:100690003E8531503E8783E68A8B44C1F201C0809B
:1006A000FE85F150FE8722E030E0420E531E3AC133
:1006B000F201C080D180892B49F0FD856F2F77270B
:1006C00067FD7095C6010E946A0519C0F601019088
:1006D0000020E9F73197EC19E98B12C0F201C080D4
:1006E000D180892B49F0FD856F2F772767FD7095A5
:1006F000C6010E945F0503C0C6010E945605898B92
:1007000022E030E0420E531E3E858989381B3E8729
:1007100009C1A2FE08C0F20180819181A281B3814A
:1007200024E030E009C0F20180819181AA2797FD81
:10073000A095BA2F22E030E0420E531E6C017D01DD
:10074000B7FF0CC082E090E0A82AB92AF094E094A8
:10075000D094C094C11CD11CE11CF11CEFEBFFEF45
:10076000AE22BF2221C020E430E0A22AB32A38E71B
:100770003A8B80E1898BA2FE08C0F20180819181D1
:10078000A281B38124E030E007C0F2018081918131
:10079000AA27BB2722E030E0420E531E6C017D01E8
:1007A0008FEC9FEFA822B92287017601FE013196D6
:1007B000F88BEF87F9896F2E772488249924C80154
:1007C000B701A40193010E94A2056A3024F02A898E
:1007D000620F615201C0605DEF85F8896193F88B0B
:1007E000EF87C801B701A40193010E94A205790116
:1007F0008A01211531054105510509F7CC24DD2475
:100800007601CE010196CF84C81AC501827390701B
:10081000892B19F0FE85F150FE87A6FE09C02989B3
:10082000203111F482E001C081E03E85381B3E8713
:1008300038E0832E912C8A209B20A3FE1BC08D853F
:10084000282F332727FD30958C2D99278217930762
:1008500054F0E7EFFFEFAE22BF2228E0822E912C6A
:100860008A209B2007C0FD85FC19FD872E852F1B44
:100870002E8703C03E853C193E87C5018078917064
:10088000892B69F48E8506C0B10180E290E00E9458
:100890007505812F182F11501816B4F31E87A1FE6D
:1008A00004C0B1018DE290E00BC0A4FE04C0B10110
:1008B0008BE290E005C0A5FE05C0B10180E290E0AA
:1008C0000E947505A6FE10C0B10180E390E00E9471
:1008D00075058989803141F4B101EA898E2F992704
:1008E00087FD90950E947505B0FE0DC08E8506C0EF
:1008F000B10180E390E00E947505812F182F1150FF
:100900001816B4F31E87892869F02D8506C0B10139
:1009100080E390E00E947505212F122F11501216CE
:10092000B4F31D8790E8692E712C6A207B20A7FC08
:100930000DC08E8506C0B10180E290E00E94750571
:10094000812F182F11501816B4F31E87FA89F33629
:1009500041F4B1018C2D992787FD90950E94750572
:1009600045C02A892337B1F446015601198909C0C7
:10097000F50181915F01B101992787FD90950E9452
:1009800075051150A8F76401F989CF0ED11C2FEF1E
:10099000298B2CC03A89333519F00F8518891FC06F
:1009A00046018601B98808C0F8018491B1019927F0
:1009B0000E9475050F5F1F4FBA94FFEFBF16A1F796
:1009C00064012989C20ED11CF98B10C0F8018291F3
:1009D0008F01B101992787FD90950E947505CE0181
:1009E00001960817190791F7188B0F876728B1F040
:1009F0008E8506C0B10180E290E00E947505812FCE
:100A0000182F11501816B4F31E8708C0B101FA89C7
:100A10008F2F992787FD90950E947505AA24BB24E6
:100A200013C02A89253241F43AE0398B1E861D868F
:100A300081E0A82EB12C08C0B101EA898E2F992738
:100A400087FD90950E9475052B893C892F5F3F4F4C
:100A50003C8B2B8BF101838183FF04C0EB89FC89E4
:100A6000F49103C0EB89FC89F081FA8B2A89222357
:100A700009F07ECDF1018681978164960FB6F894D6
:100A8000DEBF0FBECDBFDF91CF911F910F91FF90C1
:100A9000EF90DF90CF90BF90AF909F908F907F901E
:100AA0006F905F904F903F902F900895FC010590BC
:100AB0000020E9F7809590958E0F9F1F0895FC0107
:100AC0000590615070400110D8F7809590958E0F79
:100AD0009F1F0895FC016150704001900110D8F7EC
:100AE000809590958E0F9F1F08950F931F93CF931E
:100AF000DF938C01EB018B81992781FF1BC082FF63
:100B00000DC02E813F818C819D812817390764F4A7
:100B1000E881F9810193F983E88306C0E885F985C6
:100B2000802F0995892B31F48E819F8101969F83B7
:100B30008E8302C00FEF1FEFC801DF91CF911F918D
:100B40000F910895A1E21A2EAA1BBB1BFD010DC037
:100B5000AA1FBB1FEE1FFF1FA217B307E407F5076D
:100B600020F0A21BB30BE40BF50B661F771F881F49
:100B7000991F1A9469F760957095809590959B01DF
:0A0B8000AC01BD01CF010895FFCFC5
:100B8A000080FF0080FF583A2025642C20593A2023
:100B9A0025642C205A3A2025640A0D0068690D0A3A
:020BAA00000049
:00000001FF
